:020000040800F2
:1000000098060020D5000008DD000008DF00000889
:1000100000000000000000000000000000000000E0
:10002000000000000000000000000000E1000008E7
:100030000000000000000000E3000008B113000809
:100040000000000000000000E7000008E7000008D2
:10005000E7000008410C0008590C0008710C00086A
:10006000051D000800000000000000000000000066
:10007000E7000008E7000008E700000800000000B3
:10008000000000000000000000000000E700000881
:10009000000000000000000000000000E700000871
:1000A00000000000E7000008000000000000000061
:1000B00000000000E7000008E7000008E700000873
:1000C0000348854600F07AF9004800471D350008CE
:1000D000980600200448804704480047FEE7FEE7F2
:1000E000FEE7FEE7FEE7FEE7E5150008C1000008B1
:1000F00030B50B46014600202022012409E00D46C0
:10010000D5409D4205D31D469540491B2546954047
:1001100040191546521E002DF1DC30BD70B500248B
:100120002546002801DA01244042002901DA012590
:100130004942FFF7DDFFAC4200D04042002C00D026
:10014000494270BDF8B502464A40D40F42004B0008
:1001500052085B089A4202D20246084611464A00FB
:1001600023D0C30D4A00DDB2120EAD1A202D35DAB0
:1001700049020126490AF6058A19002C00D052428C
:1001800020214F1B1146B9402A411018C20D9A4236
:1001900021D0002C17D0012D08DCDA05801AD20FEF
:1001A0008019D207DBB200F0CFF8F8BDDA05801A6B
:1001B000012340001B06C01880185A428018CA0F3D
:1001C0001043490007E04908C2071143DA05801AC5
:1001D00080194008801800F0AFF8F8BD61000122D6
:1001E000511A001BF7E70122D2075140AAE701226A
:1001F000D2075040A6E7024670B54A40D30FDB074E
:1002000040002DD04A002AD0010E140E0002120226
:100210000919400A520A8418E50104465443000AA9
:10022000120A2E045043A4194219200CC543AA18DF
:10023000120C0125AD03521C521912047F392404FB
:1002400000D0521C104301D44000491EC2B20C061B
:10025000C0092018401C4008802A02D003E000207A
:1002600070BD40084000002900DA0020184370BD2E
:1002700070B502464A40D50F40004A00ED074008DD
:100280005208002814D0002A12D0C40DD30D410208
:100290000120C0055202490A520AE41A091812182C
:1002A0007D34914201D3641C00E04900002C01DA46
:1002B000002070BD0023914201D3891A03434008F6
:1002C00049000028F7D100290AD0914202D101212A
:1002D000C90705E0914201D2012101E00121C94392
:1002E000E005C018401900F027F870BDC217C10F13
:1002F000504010B54018CA079623002100F024F89A
:1003000010BD10B500229623114600F01DF810BD57
:10031000410040020122400AD205090E80187F29BF
:1003200001DA00207047962903DC9622511AC84052
:100330007047963988407047002904DA401C49000C
:1003400001D140084000704770B40024050C05D16D
:100350001024000402D1002921D01124050E01D15E
:1003600000020834050F01D10001241D850F01D1C1
:100370008000A41C002801DB4000641C002908D078
:1003800020252E1B0D46F540A14000D00121294318
:10039000084301061B1B000ADB1D02D5002070BCB0
:1003A0007047DB05181880180029F8DA401C49004E
:1003B000F5D170BC4008400070470000064C012594
:1003C000064E05E0E36807CC2B430C3C98471034FD
:1003D000B442F7D3FFF778FEB8380008D8380008E1
:1003E000F8B50024EDE07A480127C068A7403842FC
:1003F00001D0012100E00021204601F057FC744E9D
:100400000546CC3E7068015D01290ED0012D69D0F2
:100410006F48817D89077BD5C068002878D06D48FA
:100420007189006862008152C9E0694A012DD16872
:1004300008D039424ED0674B66001B689B5B002B8F
:100440003AD0BCE0394206D1624B60001D682D5A9B
:10045000002D0FD0B3E05E485E49CC380B68008AAF
:1004600065005853D0780028DED04868405B0028EB
:100470000CD0A4E03943D160D178002902D0918A10
:100480005A6811521A68318A115298E0524E7068B7
:10049000B168405B4853D0680321B843D060304610
:1004A0003C3040680155204602F0CCFA7068415B50
:1004B0003046D030415382E0B943D16005552946DA
:1004C000204602F0BFFA44484068815B4048383813
:1004D000815374E005552946204602F0B3FA3E48A0
:1004E00041680EE03C4D0020296AA2000855696A67
:1004F00088507168012008550146204602F0A2FA92
:10050000696860000A5A324938390A5257E0FFE7F1
:100510003148016A095D80290ED2A300416A9C46D8
:10052000CA5843686700DB5BD2186346CA50016A49
:100530000A5D521C0A550BE0426AA10094465258CB
:100540006700D309D21A4368DB5BD3186246535065
:100550002148670040681F4BC15B1D48083B383885
:10056000C05B02229A5E081A82421FDB524282421C
:100570001CDC18480068C05B002820D11648416A7E
:10058000A000009008581449096A095DFFF7B0FD02
:1005900011498968C85310480021426A00981150D7
:1005A0000D48006A01550C484068C15B084838385E
:1005B000C153706829460555204602F043FA641C71
:1005C000E4B203484178A14200D90CE7F8BD00002D
:1005D0009C0300208800002094020020F8B500252C
:1005E0001A4E1B4F12E06C007068B168005B095B2B
:1005F0006422401A316900B2085371695043095F9F
:10060000FFF78CFDF1686D1C0853EDB23878A842F5
:10061000E9D80F4818384178FF2915D0083000680C
:100620004B00C15A00290FD10221C152094A0020B2
:1006300041008C18401C6488C0B254526328F7D320
:1006400071684000C95A1152F8BD000094020020A0
:1006500098000020D0030020F8B5494F0026B96863
:10066000F868884203D1002800D0BE80F8BD454814
:10067000C16E002907D0C06E8047002803D0F968FA
:10068000B8688142F2D0404801244078FF2819D050
:100690003E4940004969095E3B482038408A814212
:1006A00010DA002509E02046F968A840014202D08E
:1006B000284602F03FFB6D1CEDB27878A842F2D8D4
:1006C000F868B8600020B880F968B960B87DC007E4
:1006D00032D0002907D02D4AFF25D768284A0023A9
:1006E000184656780DE0FF250DE022468240114263
:1006F00005D04200BA5E934201DA13460546401C1B
:10070000C0B28642F1D800201D4BFF2D98600ED05C
:100710001D4E203E3278FF2A03D0204690400142F1
:1007200003D1AC409C603570F8BD9860F8BD1649A7
:10073000FF2020390870F8BDFD7D002DFBD0002082
:1007400002467E7807E023468340194201D0521CBE
:10075000D2B2401CC0B28642F5D89542EBD20025F9
:1007600008E02146A940084202D0284602F0E2FAF9
:100770006D1CEDB27878A842F868F2D8B860F8BD80
:100780009C0300200802002080000020940200202A
:1007900000207047F0B500208BB0009001900290CF
:1007A00005460390E449481904908079844600285E
:1007B0007ED00498002684780020614605900919AF
:1007C000DE4A204606911DE0DB49430028390969CD
:1007D000CF5E002F05DDCF5A011B49006B465F52EB
:1007E00004E00023011B49006F467B52071B7B007E
:1007F0006946C95A059B994201D9FEB20591401C30
:100800000699C0B28142DFD8002E01D0701E01E0EF
:100810006046401EC7B26046401E0A90B04202DDEC
:10082000701CC0B200E0002040006B460890185ACF
:1008300071000790595A4118780006901F5AC8193C
:1008400080B20590BC486100283840690990415E3B
:100850000598814238DCB8490020E031B64B8880E9
:10086000D968495D042943D0002E6CD00A99B14261
:1008700002D108996A46505218696900405A614687
:10088000491EFFF74BFCFFF731FD07463046FFF7E7
:1008900038FD07900598FFF734FD0646089968462D
:1008A000425A0699405A101AFFF720FD314600E0DF
:1008B000A9E0FFF7DDFC0799FFF744FC3946FFF795
:1008C0009AFCFFF725FD82B29B4901264878AE408D
:1008D000304244D0994B9A4237D097486900E03073
:1008E00008184283944896491430007C485513E117
:1008F00018696900405A61460890FFF7F9FBFFF755
:1009000000FD0A903046FFF7FCFC06900598FFF7C3
:10091000F8FC05900798C01BFFF7E8FC0599FFF766
:10092000A7FC0699FFF70EFC0A99FFF764FCFFF796
:10093000EFFC82B2002EC7D10798B842C4D2089803
:10094000801A401EBFE7069994E77D4A525D002A4F
:10095000CDD10A78B2430A70B0434870DCE07649E2
:1009600009788C46314211D074498A4209D07449C1
:10097000495D0029BBD170493043487070481C382C
:100980003EE06D486146B1430170C5E06A496F00C1
:10099000E03100237918DB4305914B836649B0436E
:1009A0004870180C82422FD0654A30461C3A937822
:1009B0001843907060463043087008461430604B0E
:1009C000007A5855181D4078FF281CD0099B40001C
:1009D000185E528A904216DA274604E0384602F042
:1009E000A9F97F1CFFB2049880790019B842F5D8A4
:1009F00000200599C04348834F480178B1430170F6
:100A00004178B143417087E04D491C3988780642EE
:100A10001AD0B0438870484F00212046283F0EE08E
:100A2000454A460014329389454A0C321268935362
:100A30007A6A860091513A6A1154401CC0B2049AF5
:100A4000927912198242EBD8264660E03A4828385B
:100A5000016A895D80290ED2B300416A9C46CA585A
:100A600043687700DB5BD2186346CA50016A8A5D2F
:100A7000521C8A550BE0426AB100944652587700E6
:100A8000D309D21A4368DB5BD318624653502A4A13
:100A900077004168A832C95BD25B294B891A1B1DBC
:100AA00002229A5E8A423EDB52428A423BDC19466F
:100AB00008310968C95B002927D11F482838416AD5
:100AC000B000059008581C492839096A895DFFF76C
:100AD0000FFB194928398968C85317481430818990
:100AE00017480C300068C153134800212838426A67
:100AF0000598115010482838006A81550E4828384A
:100B00004068C15B0C48A830C153761CF6B204980B
:100B100080790019B04299D86D1CEDB2042D00D235
:100B200040E60BB0F0BD044914318A8904490C3108
:100B30000968CA53E4E70000BC020020FFFF000080
:100B40007C00002010B504490F2000F0DFF80F20D2
:100B500000F0CCF810BD00000202000010B5044601
:100B6000024804700F2000F079FA10BD4D000020FB
:100B700010B50848007800280BD006480078401EC1
:100B80000449087008460078002802D10F2000F0C0
:100B9000ADF810BD4D000020F0B5154EB07901281C
:100BA00024D000203746134A383718E07968536854
:100BB000095CF12909D041005C5A338A9569E4182F
:100BC0006C529468645AE31805E0410094695B5ADA
:100BD000635293685B5AD469401C6352C0B239783F
:100BE0008142E3D86420B0720120B071F0BD0000F2
:100BF000600000209402002008B50549414300919F
:100C000000BF00BF00994A1E00920029F9D108BD1B
:100C1000B80B0000014600200DE0012282400A408E
:100C2000002A06D001228240044B1B681A43034B62
:100C30001A60421CD0B21028EFDB70474000002041
:100C400010B50448C468C46072B62046FFF7E2FFDE
:100C500062B610BD0018024010B50448C468C460F4
:100C600072B62046FFF7D6FF62B610BD00180240EC
:100C700010B50448C468C46072B62046FFF7CAFFC6
:100C800062B610BD0018024010B506480069022186
:100C900088430449086100200349086000F064FBB0
:100CA00010BD000000E000E04000002010B50B483F
:100CB000406D002802D0002009498880094800685A
:100CC000002802D000200649888000F06BFB06480F
:100CD0000069022108430449086110BD0802002090
:100CE0009C0300204000002000E000E01A2800DB08
:100CF0007047C100044A89188988C200024B9A587B
:100D0000916200BFF4E70000FC350008F3B585B040
:100D1000064606980007000F0490F0210698084048
:100D200003900901069808400290090106980840BE
:100D3000074609010698084001901A2E01DB07B00A
:100D4000F0BDF000BF490D58F00040188488002025
:100D500000900220A968224662435300D2189143B2
:100D60002246624342431143A96000BF0120B040C4
:100D7000B54909680840002814D00120B040B249A4
:100D800009688143B0480160204600F0B3F920466D
:100D900000F0B8F900BFAD480068A043AB49086057
:100DA00000BF00BF0398102806D020280AD03028A2
:100DB0000ED0402812D000BF00222146284600F065
:100DC000E4F911E001222146284600F0DEF90BE0AB
:100DD00002222146284600F0D8F905E003222146E8
:100DE000284600F0D2F900BF00BF0298FF38013852
:100DF000002804D0FF38013800280CD105E001227A
:100E00002146284600F0B9F905E00022214628468F
:100E100000F0B3F900BF00BF0498012806D00228F3
:100E20006FD003286ED004286DD1A7E000222146A0
:100E3000284600F095F9012109040198401A04D0D0
:100E4000401A09D0401A15D10DE0204600F052F9A1
:100E5000204600F067F90DE0204600F053F92046E7
:100E600000F058F906E0204600F05CF9204600F05A
:100E700051F900BF00BF012109040198401A04D0B4
:100E8000401A03D0401A71D101E000BF00BF082C06
:100E900018D006DC012C09D0022C0BD0042C1BD15D
:100EA0000CE0102C12D0202C16D112E003200004EC
:100EB000009011E06120C00200900DE0312000039D
:100EC000009009E06320C002009005E060480090B7
:100ED00002E06048009000BF00BF0098002817D0D3
:100EE00005200007854204D10020009900F022F976
:100EF0000EE05948854207D10120009900F01AF907
:100F000006E035E040E09AE00220009900F012F996
:100F10000120B0404C49096808434B49086000BFB4
:100F20004A48006820434949086000BF012C01D0AD
:100F3000022C07D10321052002F048FA052002F017
:100F4000EDF912E0042C01D0082C07D10321062072
:100F500002F03CFA062002F0E1F906E00321072046
:100F600002F034FA072002F0D9F900BF00BF66E0B2
:100F700001222146284600F0F3F860E003222146D2
:100F8000284600F0EDF85AE002222146284600F0FB
:100F9000E7F83805000D002825D13813030002F0CA
:100FA0009FF90D080A0C0E10121416181A1C1E2098
:100FB0002200002717E0032715E0042713E001278C
:100FC00011E003270FE001270DE002270BE00527C2
:100FD00009E0052707E0062705E0062703E00627C6
:100FE00001E0062700BF00BFFF2C11D800BF286A10
:100FF0002146614361436143CA00511A8843214637
:1010000061436143614379430843286200BF15E0AF
:1010100000BF200A4043210A4843210A4843C10037
:10102000091A686A8843210A4943220A5143220A5D
:10103000514379430843686200BF00BF00BF00BF4F
:1010400000BF7CE6FC350008440000208018024008
:101050000100030001080300000400501A2800DB0F
:101060007047C100044A89188988C200024B9A5807
:10107000916100BFF4E70000FC350008F0B50E49AF
:1010800000204978FF2916D00C4E4D0072680C4F95
:10109000545B00214A00BB5AA34201D2E21A00E08D
:1010A0001A1B92B2824202D91046B2685353491CAD
:1010B000C9B26329EED3F0BD800000209402002065
:1010C000D0030020704700000022002109E0C30780
:1010D000DB0F002B02D0054B5B5C1A4340104B1C0E
:1010E000D9B20829F3DB024B9A707047F13500083A
:1010F0004A000020024949688143014A5160704713
:1011000000180240024909688143014A1160704792
:1011100000180240024949680143014A5160704782
:1011200000180240024909680143014A11607047F2
:101130000018024070B50C02230E0C04220E074C5E
:101140008D072D0F64591D469540AC4305469540CB
:101150002C43024D8E07360FAC5170BD6018024013
:1011600030B503680C464C4365006419A3430C4634
:101170004C4354432343036030BD10B543688B4355
:101180000C4654432343436010BD30B5C3680C463E
:101190004C4365006419A3430C464C43544323431A
:1011A000C36030BD08B50549496B0143034A51632B
:1011B0001146496B0140009100BF08BD001002407C
:1011C0004020034908704870002088707047000074
:1011D0004A00002010B500203049087000240AE0C1
:1011E0002F49085D2F49FFF791FD2D49085DFFF755
:1011F0007DFD601CC4B2082CF2DB002445E02A49C6
:10120000085D2849FFF782FD2749085DFFF726FFA3
:101210002548005D0B2807D12448C069FF21013112
:1012200008432249C8612EE01F48005D0C2807D101
:101230001E48C0690121490208431C49C86122E0D7
:101240001948005D0D2807D11848C069012189029D
:1012500008431649C86116E01348005D0E2807D1FF
:101260001248C0690121C90208431049C8610AE057
:101270000D48005D0F2806D10C48C0690121090303
:1012800008430A49C861601CC4B2032CB7DBFFF7EE
:1012900097FF01200649087010BD0000490000209A
:1012A000EF36000802020000F73600080000014097
:1012B0004800002070B51B480078002800D170BDA0
:1012C00019491A4A1278885CFFF7C8FE1748007857
:1012D000401C1649087008460078032801DB0020EE
:1012E0000870134811490978455C00240FE0E807AD
:1012F000C00F002804D00F49085DFFF7AFFE03E0E0
:101300000C49085DFFF7F2FC6D10601CC4B2082C9C
:10131000EDDB0549054A1278885CFFF7E7FC00BF62
:10132000CDE7000048000020F73600084900002003
:101330004A000020EF36000810B504460A21204676
:10134000FEF7ECFE0649085C064908700A212046B3
:10135000FEF7E4FE0248405C0249487010BD000000
:10136000E73500084A00002010B500200949087040
:1013700009490A4A1278885CFFF770FE002405E0EC
:101380000749085DFFF7B2FC601CC4B2082CF7DB0C
:1013900010BD000048000020F7360008490000207A
:1013A000EF3600080120014908707047480000200E
:1013B00010B508480088401C064908800846008887
:1013C000012806DB0020088002F098F8012001F0D7
:1013D0006FFC10BD3C00002038B552480068FF216A
:1013E000013108434F4908604F4800688008800079
:1013F000401C4D4908604B484068000C00044B49B4
:101400000988C904C90C0122D20311430843454984
:10141000486000BF434800680121890208408842B3
:10142000F8D100203F4989680F22120291430143FD
:101430003C4A916000BF00BF11468968C908C900D5
:101440000143916000BF00BF00BF3648806838216B
:1014500008400028F8D100BF3249896807221203EA
:10146000914301432F4A916000BF00F06DF80120C5
:101470002C494031096801432A4A40321160114623
:1014800009680140009100BF00BF00072549C96BF2
:101490000143244AD1631146C96B0140009100BF4A
:1014A00000BF00BF2248006891150843204908602A
:1014B00000BF0120FFF776FE0220FFF773FE202019
:1014C000FFF770FE1B491C480068FEF711FE7D21E6
:1014D000C90004464C43601E1849884200D90CE0FC
:1014E000601E174948610321081F01F033FF0020E7
:1014F000134988610720086100BF0021481E01F0E0
:1015000029FF0020C043002809DB00BF00BFC2063E
:10151000D20E012191400B4A116000BF00BF00BFF5
:1015200038BD000000100240002002400001FF1FF3
:101530000070004040420F0034000020FFFFFF0019
:1015400000E000E000E100E070B52148806838214B
:101550000840002815D0082804D0182806D02028D4
:101560000ED108E01B481C49086020E00120C003A0
:10157000194908601BE00120C0031749086016E004
:1015800000BF13484068072149030840460B104834
:10159000006889100840C10A01258D40B1000F4A3A
:1015A00050582946FEF7A4FD0B49086000BF00BF54
:1015B000074880680F2109020840000A8000084996
:1015C0000C5805480068E0400349086070BD000001
:1015D0000010024000127A0034000020A4350008F8
:1015E0004435000810B508484068000C000407495D
:1015F0000968084304494860C80305498860FA201F
:10160000FFF7FAFA10BD0000001002400001FF1FB2
:1016100000ED00E0F0B5784D85B0EE6BE88D2C461E
:101620002034A17A48436421FEF762FD80B2019024
:10163000E88DE17A48436421FEF75AFD80B20090BC
:10164000E88DA17A143948436421FEF767FD80B222
:101650000390E88DE17A143948436421FEF75EFD7A
:1016600080B20290654D0020A8700F2001F03EFA74
:10167000002462480125C168A540A943C1603542E4
:1016800020D05F4801680214914301605A48009BD2
:101690007030071939462046019A00F0B3F8002847
:1016A00010D003280ED15548C1680D43C560544879
:1016B000016802141143016039462046009B019ADB
:1016C00000F0A0F8641CE4B21A2CD2D34C4908688C
:1016D0000A14904308604949F020491D009B019A73
:1016E00000F090F8032810D1444802228178114379
:1016F0008170434908680A14104308603F49F0208C
:10170000491D009B019A00F07DF83B4DE87801F0FF
:10171000EDF900243848816B0125A540A943816378
:1017200035421FD036490A680B149A430A600719DC
:101730000A3739462046009B019A00F063F80028DA
:1017400010D003280ED12C48816B294381632C488B
:10175000016802141143016039462046009B019A3A
:1017600000F050F8641CE4B21A2CD3D3244C206847
:101770002514A8432060214EF020361DB11C009B8B
:10178000019A00F03FF803280DD1301F8178042220
:1017900011438170206828432060B11CF020009B19
:1017A000019A00F02FF82068A84320601349F12027
:1017B000C91C029B039A00F025F803280DD10F499C
:1017C0000822887810438870206828432060C91C4C
:1017D000F120029B039A00F015F80748806D00285D
:1017E00004D000F057F8002005B0F0BD0248FF21FA
:1017F00040308170F7E70000080200205000002010
:1018000000380040FFB580246600204F81B00025DD
:10181000012038711E488168090A0902214381604C
:10182000019801F085F9002804D0012005B0F0BD31
:1018300001F06AFE38790128FAD0701B012801DD19
:10184000AE420FD21248C26A04998A4201D90320DB
:10185000ECE7C16A0398814214D2012C12D9641EAC
:10186000E4B20FE00A48C26A03998A4201D22646CE
:1018700004E0C16A0398814204D925467019C00565
:10188000040EC5E7029804700020CFE7280200206C
:1018900000380040FEB53E490091088AC10040185A
:1018A0000A21FEF725FC80B201903A4880246600A8
:1018B0000268002520218A4302604268032109044E
:1018C0008A430099497909040A434260016A0A0C73
:1018D00000991204098A0A43026201680214114342
:1018E00001602B4F203F012038712A488168090A86
:1018F00009022143816026484038806D00F0ECFCED
:10190000002802D014E001F0FFFD38790128FAD058
:10191000701B012801DDAE4225D21E48C16A019824
:10192000814203D2012C01D9641EE4B20098847074
:10193000174A403A507A0128164824D003682021DB
:101940008B4303601348016AD28D090C09041143CB
:10195000016241680322120491433A7A120411434E
:1019600041600020FEBD0B48C26A01998A4201D243
:10197000264604E0C16A01988142D7D925467019EC
:10198000C005040EAFE70168202319430160D9E7C1
:101990004802002000380040F0B587B001200490D4
:1019A0007148406E002802D06F48406E80476E4CF0
:1019B0004034608AA081608A002800D02089E081BC
:1019C000049800F069FE002803D0684802210170E5
:1019D000C1E067480168E3221203914303225204E5
:1019E000891801600168D2109143C21389180160FF
:1019F0006048026904210A43026140BF20BF20BF42
:101A000002698A430261002000F00EFE5748007808
:101A1000042872D10120E070574D00272F712879DA
:101A2000002805D02879042805D001F06DFDF6E7DF
:101A300000F068FFF3E74D49032008704A48476506
:101A400000204E7817E04D4D42002968AB68895A56
:101A50009B5A994201D3C91A00E0591A6B6989B29D
:101A60009A5E8A4205DC404B5A6D012181400A434F
:101A70005A65401CC0B28642E5D800200090019013
:101A80000290034603903D482830C01881798C4667
:101A900000294AD08178002265466D180846AE4676
:101AA00005921AE0354F46003D68BF68AD5BBE5BEE
:101AB000B54201D3AD1B00E0751B461AADB27700ED
:101AC0006E46F553002D471A7E006D46AE5B059DB0
:101AD000AE4200D9FAB2401CC0B28645E2D8002A14
:101AE00001D0501E01E06046401E65466D1EC0B22A
:101AF000954203DD551CEDB201E01EE000256E00AD
:101B00006D465200AE5BAA5A4000285AB21810180F
:101B10001A4A4D00526980B2525F824205DC124D72
:101B20006A6D0120884002436A655B1CDBB2042BAE
:101B3000A9D30D48406D002806D00C49022008703A
:101B4000012000F071FD01E00020049007480078BA
:101B5000022800D02DE70448816E002901D0806E54
:101B6000804707B0F0BD0000080200209C03002061
:101B70000070004000ED00E06000002094020020B2
:101B8000F0B50020134E1FE0134B00211A7842439A
:101B9000450009E0104C5718103433687F00646822
:101BA0005B5B491CE353C9B20B4B1B788B42F1D8EA
:101BB000094A00211032126883001154726AD15010
:101BC000326A1154401CC0B203491831097881426D
:101BD000DAD8F0BD9402002080000020F8B500247F
:101BE0004FE02F4A10681346015D103B491CC9B2F3
:101BF00001551D781068A94201D3002101551878BC
:101C0000604386462748016860000090095A21CA4F
:101C1000065D70463018400029521978012908D015
:101C2000002084461E48002300681F4D005D1F46AB
:101C300017E01C4800990268515A2DE0184E724670
:101C4000766812185200B25A624500D99446AA42E8
:101C500000D21546D318002819D0401E7F1CC0B2F0
:101C6000FFB2B942EAD8022913D06046181A401BC5
:101C7000891EFEF73DFA0B494A6800995052641CD0
:101C8000E4B2074808300078A042AAD8F8BD481E40
:101C9000E4E7D803010C0348426800981152EEE7CC
:101CA0009000002094020020FFFF000070B5114D4D
:101CB00044006A690029125F04D0D0000A21FEF7AF
:101CC0002DFA02B22869005F904201DD012070BD4B
:101CD000094A0221515E884201DD022070BD0028C0
:101CE00001DD032070BD4942884201DD042070BD42
:101CF000052070BD9402002080000020004870473D
:101D0000010D020110B500F013FB10BDF8B5324A09
:101D10000546137831493248032B0BD0EA070024DB
:101D2000304E002A2ED0C96A6A46118031790329C3
:101D300005D027E0C96A418204201070F8BDC1783F
:101D4000002903D0C178491EC1700CE025482649FE
:101D50004379F279022758000968002A05D0012A40
:101D600014D0022A19D034710CE06A4612880A5243
:101D70001B4840388078012801D1F07100E0F771EC
:101D800000F09AFD6807D9D53471F8BD6B460A5A40
:101D90001B88D21852080A52F1E7124A6F463832AD
:101DA00052683F88D25CF12A0A5A01D0D21B01E066
:101DB000D21952080A5269460988706A5B1C401899
:101DC00070620849F471D8B2707138310978814273
:101DD000D6D804203071F8BD9C03002000380040A4
:101DE000480200206000002094020020FEB5FD495A
:101DF0000A68FD4802604A6842608A688260CA6870
:101E0000C260F8482030827CF84C2270C07C607040
:101E1000D0B2F74D02280CD0042834D0487A30389C
:101E2000C0B206287ED00221042821707BD0142065
:101E300060700020EF4B01469A14C618001D80B256
:101E400031609042F9D3EC48EC49006888421AD1DD
:101E5000EB480168821511430160296889088900EF
:101E6000491C29604168E74A090C12880123D20401
:101E70000904D20CDB03D218114341600168490503
:101E8000FCD5FFF761FB6078DF4A844610287DD8D7
:101E9000DE48DF4903685B1C79D06869002803DAF3
:101EA000DC48A860DC48A860D54840681368000496
:101EB000400F8100D94840580168CF05FF0DBB4253
:101EC0002AD153680E01B60DB34225D11369890397
:101ED000C90D8B4220D193684168CE05F60DB342FF
:101EE0001AD1D3680901090D8B4215D15169836854
:101EF0009B039B0B99420FD19169C3689B039B0B7A
:101F0000994209D1D36901698EB2B34204D1136AEF
:101F10008900890C8B4222D0176001680901890D64
:101F2000516001E03AE03EE001688903C90D1161AA
:101F30008188C905C90D916041680901090DD16009
:101F400081688903890B5161C1688903890B91619B
:101F5000018A89B2D16100698000800C1062286911
:101F6000C043C003FBD5AE4B2B6169690120C002A1
:101F700001436961A54EFF2131602969C943C90345
:101F8000FBD52B6169698143696101E011E00CE0D7
:101F900068690121C907084368610AE004202070CC
:101FA00020206070A9E0102042E7001D884200D286
:101FB00070E7604614287DD895489A4903685B1CF1
:101FC00079D06869002803DA9248A8609248A8602E
:101FD0008B48406816680004400F81008F484058C5
:101FE0000168CB05DB0D9E422AD156680F01BF0D5B
:101FF000BE4225D116698903C90D8E4220D196684B
:102000004168CF05FF0DBE421AD1D6680901090DFE
:102010008E4215D151698668B603B60BB1420FD115
:102020009169C668B603B60BB14209D1D669016998
:102030008FB2BE4204D1166A8900890C8E421FD02D
:10204000136001680901890D516001688903C90D98
:1020500011618188C905C90D916041680901090DA7
:10206000D16081688903890B5161C1688903890B3B
:102070009161018A89B2D16100698000800C10628F
:102080002869C043C003FBD5654A2A6168690121FC
:10209000C902084368615E48FF2303602869C043A2
:1020A000C003FBD52A616869884368616869084391
:1020B000686101E021E01CE05B4803602869C043DF
:1020C000C003FBD52A616869884368616869084371
:1020D0006861564803602869C043C003FBD52A6184
:1020E00068698843686168690121C90708436861B4
:1020F00003E0001D884200D260E7217860783A4C06
:102100000901243C08432076384822460E38002531
:10211000B83A0146857140310A604D710D718022D7
:102120008A71E560A56005718581457100F04AFE00
:1021300025612E4D00202A352E786F6809E0395C24
:102140001A2904D2012223698A4013432361401CC7
:1021500080B28642F3D8A08A002800D00120E07027
:102160000020411E4300204A401C243A9A1880B2A5
:1021700051830428F6D300F007FC2D48407A032849
:102180007ED12C4802902A4800242038024638325A
:102190000A302146009201900BE0002909D0012964
:1021A0000AD002296DD0114D00222A352D78AC4677
:1021B00050E0009B0198F6E71F4B2048F3E76D685D
:1021C000AD5C1A2D44D2094E761F3678FF2E01D011
:1021D00096423DD00126AE401F68455D37422FD064
:1021E0006D002EE00002FF1FC00300206E000020E3
:1021F000002002400008002034000020006CDC02B7
:10220000001002400001FF1F0021024000400008B2
:102210000050000823016745AB89EFCD98380008CE
:1022200011800000008000080060000800700008B5
:1022300028020020FFFF00005C0000207802002040
:102240006D08AC4200D22C46029EAE4200D90295E7
:10225000521C92B21E4D9445B1D800222AE06D68FE
:10226000AF5C1A2F24D21A4D2F3D2D78FF2D01D0AF
:1022700095421DD00126BE401D68B446354201E09E
:1022800021E01BE0C65D01D0770000E07708E61B87
:102290003619B6B2802E674603D33D431D607508DC
:1022A00002E0BD431D607500094E7668B65C855539
:1022B000521C92B2064D2E789642D0D8491CC9B213
:1022C000032900D269E7034901200870FEBD000020
:1022D000980000209C03002070B5144C06466068EE
:1022E000C00701D0022070BD20680125C00700286A
:1022F00005D1206828432060642001F01BF9606844
:1023000002218843606061688807FCD52069800EDF
:102310008006304320616068012149020843606003
:10232000606828436060002070BD000000380040F5
:1023300010B50C49086B00220A61430703D58B6B6B
:10234000022423438B63C30703D08B6B01242343F5
:102350008B6305490B79012B02D0FFF7D7FC10BD29
:102360000A7110BD0038004028020020F8B5864EE2
:10237000002030708548016801277F0639430160DD
:10238000824C403C206B38432063642001F0D2F83B
:10239000206BB84320637E4D2868012108432860E4
:1023A000642001F0C7F829686803814379480278FE
:1023B00012061143296029682A0491434278D20603
:1023C00011432960696A828D490A49021143696291
:1023D000296806229143891C2960296AC28D090C4B
:1023E000090411432962E968C26B890E8906114309
:1023F000E9608278A11504462034012A6A6878D001
:102400008A436A600379012109050822012B2B68A0
:102410006ED00B432B6029689143296042790121DA
:102420004905012A2A687DD08A432A602968072243
:10243000120491438279120411432960427A2021C7
:10244000012A2A686FD08A432A606A69436B920E18
:1024500092061A436A612A680723DB029A43C3790A
:10246000DB021A432A602A68C023067A9A43B6011F
:1024700032432A606A681026B2436A606A689E0224
:10248000B243267A360432436A606A689E01B243D8
:102490006679360332436A60AA69008E920A920214
:1024A0000243AA61286801229205104328606868E7
:1024B00008436860A86B01210843A863A86B022247
:1024C0001043A863686B08436863686B10436863D4
:1024D00031480168090A090219430160082000F027
:1024E0002DFF607AC00734D0FFF794F83FE000E09A
:1024F0001EE00A436A6069680F2212059143C278A0
:10250000120511436960A96AA27C89B212041143C1
:10251000A962A96AC278090C0904204B52009A5A90
:10252000114301E011E012E0A962C178717069E71E
:102530008B432B60296811432960C26BE968890EBF
:10254000890639430A43EA6068E70A436DE70A43AC
:102550007AE7A179012080030129296812D08143FB
:102560002960A868E179000A00020843A8600C48C5
:1025700001680122D20411430160022000F0DEFE56
:102580000020F8BD0143EBE750000020401002405E
:10259000003800400802002008E400E0A4370008EA
:1025A0008018024070B500F0F3F81D4880681D499E
:1025B000096848400546002D31D0194880681949FE
:1025C0000860098888B2FEF77FFD002423E0E80751
:1025D000C00F00281CD00120A04012490968084003
:1025E00000280DD06420FEF7B9FA601CFEF7A4FEA7
:1025F000002C02D0012C02D100E000E000BF07E077
:10260000002C02D0012C02D100E000E000BF00BF8E
:102610006D08601CC4B202484078A042D7DC70BD8F
:102620009C0300203800002010B5002802D000F0E4
:1026300009FF28E0164C206801210843206064202F
:1026400000F078FF206A134A000CD18D0004084383
:102650002062606803210904884311462031097A09
:102660000904084360602069800E80062061517A69
:1026700020200129216808D0814321606068012160
:10268000890388436060002010BD0143F5E7000026
:10269000003800400802002070B5394C06466068DA
:1026A000C00701D0022070BD6068022188436060CD
:1026B00060688007FCD520684008400020606420E6
:1026C00000F038FF20692F49800E896D800608438D
:1026D000206120682021884320606068032109046C
:1026E000284B8843403359790904084360601846F1
:1026F0002038407A244DC00708D020682843206045
:10270000A0689978000A00020843A060206A198A2C
:10271000000C00040843206260680121890208431C
:1027200060601748403041685A78C909C9011143AF
:102730004160E16B9A89090C09041143E163016866
:10274000124A1140DA891204114301600168DA89E2
:10275000890A890211430160606801214902084326
:102760006060002E06D01A790820198C024358891F
:1027700000F02AFD606828436060002070BD000002
:10278000003800400802002000400000FFFF00FC6D
:10279000F8B5454E434D37462A7838370024397806
:1027A000706A012A06D0022A36D0032A77D0FFF7B2
:1027B0001DFBF8BD3279002A0BD03279042AF8D1FA
:1027C000FDF796FC7062B089401C80B2B0810A2887
:1027D00002D800F097F8F8BD00F052F900200EE0A2
:1027E00030490422CC390B681A544B681A548A8930
:1027F0002D49430028310968401CCA52C0B23978BB
:102800008142EDD8FFF7BCF9022028703471B08CFA
:102810003082FEF7C1F9F8BD3279002A03D032794F
:10282000042A03D029E000F06DF826E0FDF760FCF3
:1028300070621E48A988C28891420BD3A9780129E9
:1028400008D101464039896D002903D00321297040
:102850004482F8BD00F0D6FBFFF7C0F900F052F853
:10286000FEF70CFC7082FDF7B9FEFDF7B9FDFDF730
:1028700091FFFDF7F1FEFEF78FF90B480E3000785F
:102880000228E6D80A490B4A0868001D08609042F1
:1028900000D30C60086840184460F8BDFFE7FFF7FC
:1028A0007BF8FAE79C03002060000020480200202B
:1028B00000080020FC07000070B5104C0025E079EE
:1028C00026460F493836002808D001280AD00228A9
:1028D00007D1C87800F00AF9F12009E0C87802E0D1
:1028E000257170BD0F2000F001F961797068405CBE
:1028F00000F01EF90028F3D170BD00006000002038
:102900000802002010B50C4C00206071E07160627C
:102910000A488178012902D1C07800F0E7F806481A
:10292000617938304068405C00F002F9002801D13C
:102930000320207110BD000060000020080200206C
:10294000044841688906FCD5416810221143416062
:10295000704700000028004004484168102291435D
:10296000416041688906FCD570470000002800409E
:102970000448416808229143416041680907FCD539
:10298000704700000028004010B529480068294918
:10299000884205D10220284908700520487004E0CB
:1029A00000202549087003204870012022498870C2
:1029B0000020087101204871072088710120C8712A
:1029C00000200872012048721C48006948631B48B7
:1029D0000069C8630820C8708885A7211648203080
:1029E00081742038808D6421484313490886144837
:1029F000C8850321104820304171017201214172C4
:102A0000407A002806D100210B4820308171C8216E
:102A1000C17106E046210848203081724B210A30FE
:102A200041700020054988708880FFF79FFC10BD29
:102A300034000020006CDC02080200209C0300200F
:102A4000E02E000010B50D4B42000B4C1868012918
:102A50000BD002290BD023469B89032903D00429DC
:102A600001D0052906D0835210BD218900E061897B
:102A7000815210BDE189FBE7D002002088000020D0
:102A800030B50021164A174C15E0136848009568C8
:102A90001B5A2B52136855681B5A2B5295692B529F
:102AA0009368D5691B5A2B520D4D5368D0351B5A6C
:102AB000491C2B52C9B220788842E6D809481838F8
:102AC0004478FF2C0AD00020074B51686200450073
:102AD000401C8C5AC0B25C536428F8D330BD00004F
:102AE0009402002098000020D00300200D494A687D
:102AF000D20501D40120704700070B4A000F507027
:102B00004A680F231B059A4303051A434A608A6AE1
:102B1000064B120C12044000185A02438A6200202D
:102B2000704700000038004050000020A437000823
:102B3000F8B55B4E7168C90701D00220F8BDFEF7F9
:102B4000C1FA012504461A281BD2F0682946A14083
:102B5000084201D10120F8BD5249E0000A5813682B
:102B600094464218964617790322BA4013436246A8
:102B700013600858C1687246137903229A40914342
:102B8000C160706802218843706070688007FCD55E
:102B90003068C00705D1306828433060642000F0F9
:102BA000C9FC414B01211846890320303F4AF02CD3
:102BB00005D0F12C2ED00779002F44D05FE00479A6
:102BC000002C21D1407AC0071ED038485478001D0F
:102BD00092780F2C04D0520732680DD50A430CE0CE
:102BE0009207326801D50A4300E08A433260B16837
:102BF0004078090A090205E08A433260B1688078AA
:102C0000090A09020143B1603069D96B800E800660
:102C1000084316E00379002B10D1407AC0070DD08D
:102C200090780007306801D5084300E088433060A1
:102C3000B068D178000A00020843B0603069800EA5
:102C40008006306122E0407AC00718D050780F2803
:102C500009D09A6B1819807A2B46A3401342326828
:102C600006D00A4305E0D2680F487030005DF3E7F4
:102C70008A433260B168090A09020143B1603069D0
:102C8000810E89062846A040014331617068012108
:102C90004902084370607068284370600020F8BDE6
:102CA00000380040C437000808020020500000200F
:102CB000F0B51E4CE1780818C0B2E07005282AD3A0
:102CC0000025234628331F46E570284610370EE0BE
:102CD0001A684100565A002E01D0761E56525E6880
:102CE000725A002A01D0521E7252401CC0B239786A
:102CF0008142EDD80D4A00201C32115C002901D020
:102D0000491E1154401CC0B20428F6D308488178EB
:102D1000012907D08580A07A002802D0A07A401E21
:102D2000A072F0BD8188491C8180F4E7600000201A
:102D30009C030020F8B504461F48204A0746103778
:102D400039680578095D6543491978684900465A2C
:102D50000121D068A14088431146D060CC39496830
:102D60000520085501462046FFF76CFE1449600017
:102D70004A6816528A681652002209E00E4EAF18B1
:102D800010364B687F0076681B5A521CF353D2B240
:102D9000094B1B789342F1D8074B002210331B6874
:102DA000A5001A554B6A5A510B6A1A554968034ACD
:102DB000095A383A1152F8BD800000209C030020C7
:102DC00094020020F8B5FEF799FF0090684600785D
:102DD000012801D000BFFEE77B487C4988820020A3
:102DE000887505207A490968088179490968088247
:102DF0009620774909684881642075490968888167
:102E00003C2073490968C8810520724908700F2069
:102E10004880714871494866714888667148C8663B
:102E200071486B49896888605A3869498968C861FE
:102E30002430674989680861123865498968C86023
:102E400036306349896848605A38614989688861C1
:102E500048305F49896848615A385D498968086027
:102E6000FF3033305A49896808620A305849896806
:102E70004862AC385649496948605A3054494969F2
:102E8000086009305249496848600930504909686A
:102E9000086009304E490968486009304C490969A1
:102EA000086012304A49096948600820474948705B
:102EB000002410E04D48005D4549496849680855BF
:102EC00060004B49085A01B241488068406962007D
:102ED0008152601CC4B23D484078A042EADC4548BB
:102EE0003B49C969C86044483949C9690861002536
:102EF00051E00021C9436A0034481A308152002150
:102F00003348C069801D41553A48405D042803D0CC
:102F10003848405D02283CD12D48C069801C44558A
:102F200000260FE0E80035494018805DFF2800D1F9
:102F30000AE02749C969891D48190178491C0170AF
:102F4000701CC6B2082EEDDB00BF2746002611E03C
:102F5000E8002A494018805D1D49496849680855BC
:102F600000201B498968496962008852601CC4B20C
:102F7000701CC6B21648C069801D405DB042E7DCD7
:102F800068001F49085A00B21149896849697A00E6
:102F90008852681CC5B2042DABDB0E484470F1208A
:102FA0000B494968496808553221094880684069D9
:102FB00062008152601CC4B200200449C875092017
:102FC000034949680870F8BD701700009C03002091
:102FD0000000002080000020890C0008080200206A
:102FE000AD0C000891070008260100201F370008DB
:102FF0003A3700088E370008923700086E3700080D
:103000009A370008F0B56A4C85B0607A01287DD106
:10301000A07A14287AD32546203DE88DA17A48432A
:103020006421FDF765F880B20190E88DE17A4843AC
:103030006421FDF75DF880B20090E88DA17A0F3928
:1030400048436421FDF76AF80646E88DE17A0F31BE
:1030500048436421FDF74CF85649898C721A401A8E
:1030600092B280B200240392029099E05148383025
:103070004068005D1A2826D24E4F01263546B869B1
:10308000A54005420AD0A8434B49B8610A686000D0
:103090004968125A0A522046FFF74CFE7869002808
:1030A00012D005427AD0444861008068405A0399A2
:1030B000884202D3029988426DD9387A401CC0B246
:1030C000387264280DD069E03B4861008068405A3E
:1030D0000399884202D3029988425FD900207D611A
:1030E0005BE0002078613872B86905433148BD6102
:1030F00038304068055D0F20FFF7F8FC2F48AE40E0
:103100000168B14301602E48026800E04EE00114FE
:103110008A4302602B48009B41190F462846019ABA
:10312000FEF770FB03280ED124480168314301608B
:103130002348026801140A43026039462846009B6E
:10314000019AFEF75FFB1A4F203FF878FFF7CEFC9D
:10315000B86BB043B8631A48016802149143016028
:1031600079190A310F462846009B019AFEF74AFB5F
:10317000032813D10E482038816B314381631049F5
:1031800008680A141043086039462846009B019AD3
:10319000FEF738FB02E0002078613872641CE4B26C
:1031A000044838300178A14200D95FE705B0F0BD8E
:1031B0002802002060000020940200205C00002013
:1031C0000038004078020020F7B506461446022079
:1031D00000F094F83B4D287800283BD101233A4A6F
:1031E0002B70D06B11040843D063384F3868091531
:1031F0000843386050683649084036498988C9050F
:10320000C9090843506030484030016A19430162DF
:10321000016AC9438907FBD4C1698905890F02295D
:103220000FD0C369012109040B43C361C3698B43F8
:10323000C361C16903231B029943FF31FF3102318E
:10324000C161D16B01239B021943D163C1695A014A
:103250001143C161FFF78CFBFFF772FB1E49486801
:10326000C008C0004860C86A0722D2019043C86203
:103270008A68700112091201401E030C1A438A6009
:10328000CA6880B2120C12040243CA60A0070AD5B1
:103290008869CA69000492B21043019A8018020C2E
:1032A0000A6280B24862200702D50868A86001E07F
:1032B0000A48C6650C60FFF74FFB022000F03EF89D
:1032C000FEBD0000500000200010024000700040D1
:1032D000FFFF00FE4001FF1F002800400802002001
:1032E00030B47446641E2578641CAB4204D3635D1D
:1032F0005B00E31830BC18471D46F8E7002809DBDF
:10330000C106C90E0120884003490860BFF34F8FF2
:10331000BFF36F8F7047000080E100E0002809DBF9
:1033200000BF00BFC206D20E01219140024A1160C7
:1033300000BF00BF7047000000E100E0002805DB8F
:10334000C106C90E0120884001490860704700008D
:1033500000E100E010B5002819DB1A4A03231B0224
:10336000D21883089B00D2588307DC0EFF23A340AA
:103370009A438B071B0E8407E40EA3401A43114B9C
:10338000032424021B198408A4001A5118E00E4AD1
:1033900003071B0F083B9B089B00D2588307DC0EDA
:1033A000FF23A3409A438B071B0E8407E40EA34020
:1033B0001A43054B0407240F083CA408A4001A5123
:1033C00010BD000000E100E01CED00E010B5002899
:1033D00019DB1A4A03231B02D21883089B00D25818
:1033E0008307DC0EFF23A3409A438B071B0E840741
:1033F000E40EA3401A43114B032424021B19840832
:10340000A4001A5118E00E4A03071B0F083B9B0843
:103410009B00D2588307DC0EFF23A3409A438B07FF
:103420001B0E8407E40EA3401A43054B0407240F28
:10343000083CA408A4001A5110BD000000E100E0FF
:103440001CED00E010B50220FFF758FFFFF790FADF
:10345000FFF776FA15494868C008C0004860C86A96
:103460000722D2019043C8621148C26D002A13D0CE
:10347000C26D521C03D0C06D4001401E00E00D48DB
:103480008A6812091201030C1A438A60CA6880B262
:10349000120C12040243CA60074880680860FFF7F4
:1034A0005BFA0220FFF74AFF10BD00000028004031
:1034B00008020020FF7F00005000002002E008C842
:1034C000121F08C1002AFAD170477047002001E09E
:1034D00001C1121F002AFBD1704710B5FDF77AFE1B
:1034E000FDF730FB10BD000003480068002802D043
:1034F00000200149086070474000002010B5FDF72A
:10350000D9FEFDF735FB10BD034801690422914344
:10351000016130BF7047000000ED00E0FDF75CFF87
:10352000FFF7DBFFFEF762FC03E0FFF73BF8FFF776
:10353000DBFFFAE708B540000090002801D0401EEC
:10354000FAE708BD000000000000000000000000D5
:10355000000000000000000000000000000000006B
:103560000000000001000000020000000300000055
:103570000400000006000000070000000800000032
:103580000900000000000000000000000000000032
:103590000000000001000000020000000300000025
:1035A0000400000000000000000000000000000017
:1035B0000000000000366E01006CDC02000000001C
:1035C00000000000000000000404040000080000E7
:1035D00000080000080000000800020406080A0CA9
:1035E000000102030405063F065B4F666D7D077F01
:1035F0006F0804024010200180000000000000500D
:103600000100000000000050020000000000005017
:1036100004000000000000500800000000000050FE
:1036200010000000000000502000000000000050CA
:10363000400000000000005080000000000000502A
:1036400000010000000000500002000000000050D7
:1036500000040000000000500008000000000050BE
:10366000001000000000005000200000000000508A
:1036700000400000000000500080000000040050E6
:10368000010000000004005002000000000400508F
:103690000400000000040050080000000014005066
:1036A000010000000014005002000000001400504F
:1036B0000400000000140050080000000014005036
:1036C0001000000000140050200000000000000066
:1036D00004040400000800000008000008000000C6
:1036E0000800020406080A0C00010203040506058E
:1036F000081201130007060C0D0E1A1A0000000034
:103700000404040000080000000800000800000095
:103710000800020406080A0C000102030405061151
:103720000F0B05100A0706FFFFFFFFFFFFFFFFFF5C
:10373000FFFFFFFFFFFFFFFFFF0064006400640066
:10374000640064006400640064002800280028000D
:103750002800280028002800280028002800280029
:103760002800280028002800280028002800040835
:10377000050607FFFFFF13171819FFFFFFFFFFFFE5
:10378000FFFFFFFFFFFFFFFFFFFFFFFFFFFF000047
:1037900000006400FF00FF00FF005000C201500065
:1037A00050000000000003000300030005000300B8
:1037B00009001D0011000900050053001B0043040F
:1037C00003000B1000040050060000000000005031
:1037D0001E000000000000501C000000000000500F
:1037E0001A00000000000050180000000000005007
:1037F00016000000000000501400000000000050FF
:1038000012000000000000501000000000040050F2
:1038100004000000000400500200000000040050FA
:1038200000000000000000500E00000000000050EA
:103830000C000000000000500A00000000000050D2
:1038400008000000000000500600000000000050CA
:1038500004000000000000500200000000000050C2
:103860000000000000140050080000000014005088
:103870000600000000140050040000000014005076
:10388000020000000014005000000000001400506E
:103890000A000000010D02011C01FF1F1C01FF1F97
:1038A0001C01FF1F1C01FF1F1C01FF1F3001FF1F18
:1038B0001C01FF1F1C01FF1FD8380008000000205A
:1038C000A8000000BC34000880390008A8000020CF
:1038D000F0050000CC340008D00200209800002041
:1038E000940200209C03002088000020900000200B
:1038F0006C000020BC020020660000209438000804
:1039000069000020A0000020C003002000366E01E6
:1039100000000000000000000000000000000000A7
:103920000000000000000000000000000000000097
:103930000000000000000000FF0000000000000088
:103940000000000000000000000000000000000077
:103950000000000000000000000000000000000067
:103960000000000000000000000000000000000057
:103970000000000000000000000000000000000047
:04000005080000C12E
:00000001FF
